:020000040800F2
:10000000601400209D01000899070008910700086E
:10001000950700080D070008050A00080000000009
:10002000000000000000000000000000C9070008F8
:100030008D070008000000009D070008CD0700089C
:10004000B7010008B7010008B7010008B7010008B0
:10005000B7010008B7010008B7010008B7010008A0
:10006000B7010008B7010008B7010008B701000890
:10007000B7010008B7010008B7010008B701000880
:10008000B7010008B7010008B7010008B701000870
:10009000B7010008B7010008B7010008B701000860
:1000A000B7010008B7010008B7010008B701000850
:1000B000B7010008B7010008B7010008B701000840
:1000C000B7010008B7010008B7010008B701000830
:1000D000B7010008CD080008B7010008B701000803
:1000E000B7010008B7010008B7010008B701000810
:1000F000B7010008B7010008B7010008B701000800
:10010000B7010008B7010008B7010008B7010008EF
:10011000B7010008B7010008B7010008B7010008DF
:10012000B7010008B7010008B7010008B7010008CF
:10013000B7010008B7010008B7010008B7010008BF
:10014000B7010008B7010008B7010008B7010008AF
:10015000B7010008B7010008B7010008B70100089F
:10016000B7010008B7010008B7010008B70100088F
:10017000B7010008B7010008B7010008000000003F
:10018000B7010008B7010008DFF80CD000F01EFA34
:100190000048004709100008601400200648804706
:1001A00006480047FEE7FEE7FEE7FEE7FEE7FEE75C
:1001B000FEE7FEE7FEE7FEE7D10700088901000839
:1001C000421C10F8011B0029FBD1801A704730B582
:1001D0000B46014600202022012409E021FA02F505
:1001E0009D4205D303FA02F5491B04FA02F528449F
:1001F000151EA2F10102F1DC30BD2DE9F05F0546CC
:10020000002092469B4688460646814640241BE0D5
:10021000284641464746224600F0F9F953465A46D9
:10022000C01A914110D311461846224600F0E0F959
:100230002D1A67EB01084F4622460120002100F0ED
:10024000D7F917EB00094E41201EA4F10104DFDCB1
:10025000484631462A464346BDE8F09F2DE9FE4F09
:10026000804681EA0300C00F0C46009021F0004157
:1002700023F00045B8EB0200A94105D240462146D3
:1002800090461C460B46024623F00040104347D0E0
:10029000270DC7F30A00C3F30A510290401A0190D8
:1002A00040286BDAC3F3130040F4801B0098924699
:1002B00020B10023D2EB030A63EB0B0B01985946E4
:1002C000C0F14002504600F093F906460D465046F4
:1002D0005946019A00F0ABF910EB08006141002487
:1002E00087EA115284EAE7731A4340D0009A62B356
:1002F000019A012A4FEA075215DC001B61EB02014B
:100300004FF0004202EA0752CDE90042001C41F5DD
:10031000801132462B4600F0ABF903B0BDE8F08FF8
:1003200040462146F9E7001B61EB0201001C41F544
:10033000801300185B412018A2F5001747EB03015A
:1003400040EAD570B6196D4111E06D084FEA3606E6
:1003500045EAC0754FEA0752001B61EB0201001C21
:1003600041F5801149084FEA3000001951413246E9
:100370002B4603B0BDE8F04F00F06BB900980122A6
:1003800040000023D0EB020263EBE07300982146AB
:100390004FEAE074B8EB000061EB0401E9E783F099
:1003A00000435BE781F0004158E72DE9FE4F81EA09
:1003B000030404F0004421F0004100944FF0000BCE
:1003C00023F0004350EA01045ED052EA03045BD0FC
:1003D000C3F30A54C1F30A552C44A4F2F334019434
:1003E000A0FB0254C1F3130141F48011C3F31303C2
:1003F00043F4801301FB024400FB034E840A970A76
:1004000044EA815447EA8357A4FB076802958D0AA2
:1004100005FB07854FEA932C04FB0C542705029D2E
:100420004FEA065847EA1637B5EB08056EEB070C9E
:10043000870E920E47EA811742EA8312A7FB020158
:10044000B6EB0B0164EB00042B0D43EA0C335E1892
:1004500044EB1C50DA465146E7FB0201C5F3130496
:100460004FEA0B3343EA14534FEA0432019C43EA48
:100470000603A4F10C040294009CCDE900B400F042
:10048000F7F803B0BDE8F08F00200146F9E72DE949
:10049000F04D81EA030404F0004B21F000451446BE
:1004A0004FF0000A23F0004150EA050220D054EA40
:1004B00001021DD0C5F30A570246C5F31303C1F369
:1004C0001300C1F30A5640F4801543F48013A7EBE0
:1004D0000608101BD64608F2FD3873EB050002D360
:1004E00008F1010801E092185B41B8F1000F03DA4E
:1004F00000200146BDE8F08D00204FF48011064633
:1005000084460EE0171B73EB050705D3121B63EB44
:10051000050306434CEA010C49084FEA30009218E3
:100520005B4150EA0107EDD152EA030012D082EAA2
:10053000040083EA0501084305D0101BAB4106D235
:100540000122002306E000224FF0004302E06FF09A
:10055000010253101AEB06004CEB085110EB0A0095
:1005600041EB0B01BDE8F04D00F073B8C1F30A5246
:10057000C1F3130140F2FF3341F480119A4202DAD1
:1005800000200146704740F233439A42A2F23342C0
:1005900002DC524200F03BB800F02AB830B5041E2D
:1005A00071F1000404DB4FF00044404264EB0101B0
:1005B000141E73F1000405DB1C464FF00043524249
:1005C00063EB0403994208BF904230BD064C074DCF
:1005D00006E0E06840F0010394E807009847103413
:1005E000AC42F6D3FFF7D4FDBC240008CC240008AD
:1005F000202A04DB203A00FA02F1002070479140E3
:10060000C2F1200320FA03F3194390407047202AD7
:1006100004DB203A21FA02F00021704721FA02F3AC
:10062000D040C2F120029140084319467047202A69
:1006300006DBCB17203A41FA02F043EAE07306E00A
:1006400041FA02F3D040C2F120029140084319461A
:10065000704710B5141E73F1000408DA401C41F114
:10066000000192185B411A4301D120F0010010BD36
:100670002DE9F04D92469B4611B1B1FA81F202E0AC
:10068000B0FA80F220329046FFF7B2FF04460F46E0
:1006900040EA0A0041EA0B0153465A46084313D088
:1006A000114653EA010019D0C8F140025046FFF745
:1006B000AEFF05460E46504659464246FFF798FFA4
:1006C000084305D0012004E020463946BDE8F08DFE
:1006D0000020054346EAE0762C4337430A98630539
:1006E000E40AA0EB08000022FD0A44EA47540A305D
:1006F00002D500200146E9E7010510196941DDE94D
:10070000084500196941BDE8F04DA2E7FFE7FEE7A3
:1007100080B58CB040F6164000F052FE46F2004024
:10072000C4F2020001900521029100F0B5F903A87E
:10073000009000F031FB009A0198029941F2040305
:10074000C4F2010303930123049340F26003C2F255
:1007500000030593002306930793099340F20113C6
:100760000A934FF400330B9300F05CFA019802995E
:10077000042200F06DF90198029900F057F90198F0
:100780000299202200F0F8F90CB080BDFFE7FEE7E7
:10079000FFE7FEE7FFE7FEE7FFE7FEE7FFE7FEE72D
:1007A00040F20001C2F20001081D486588654A6DEB
:1007B00040F26000C2F2000010600020088001F1E9
:1007C0004C00C86570470000FFE7FEE77047000077
:1007D00080B582B04EF68851CEF20001086840F430
:1007E0007000086043F60001C4F20201086840F09E
:1007F00001000860FFE743F60000C4F20200006851
:100800008007002801D4FFE7F5E7FFE743F608017A
:10081000C4F20201086840F08000086000200190E6
:10082000FFE701984F2805D8FFE7FFE7019801305F
:100830000190F6E743F60801C4F20201086840F0AF
:100840009000086000200190FFE701984F2805D82C
:10085000FFE7FFE7019801300190F6E7FFE743F675
:100860000801C4F20201086820F00300086043F6A2
:100870000002C4F2020210684FF6FF73CFF6F6636F
:1008800018401060106820F480201060002008607C
:10089000FFE743F60800C4F202000068012008B92F
:1008A000FFE7F6E743F60401C4F2020143F2100049
:1008B000C2F20040086043F60C01C4F202010020BD
:1008C000086000F06DFE02B080BD000080B586B00B
:1008D00041F20000C4F2010040F20431C0F2040110
:1008E00001F0A8F8012840F08B80FFE741F20000FA
:1008F000C4F2010000F03CFF40F20000C2F2000030
:1009000005900088029046F20040C4F20200039075
:100910000521049100F068FA0299024642F2B040C3
:10092000C0F6000000F040FE0398049900F05CFA65
:10093000059902460888801A00F20110088008888C
:1009400040F26002C2F20002104401384A6D506069
:10095000486D08304865486DC96D884207D1FFE78A
:1009600040F20001C2F20001081D4865FFE740F2B5
:100970000000C2F200000088C0F50060B0F5807F82
:100980000DDDFFE740F20001C2F200010A8840F2EB
:100990006000C2F200001044496D08600CE040F2B3
:1009A0000001C2F200014A6D40F26000C2F2000094
:1009B000106000200880FFE746F20040C4F2020009
:1009C00000900521019100F01FF80098019940F274
:1009D0000002C2F20002526D1368002200F000F91A
:1009E0000098019940F2011200F0EEF90098019987
:1009F000202200F0C1F80098019900F017F8FFE7F5
:100A000006B080BDFFE7FEE782B001908DF80310CD
:100A100001989DF8031001EB410100EBC101086949
:100A200020F00100086102B07047000082B0019020
:100A30008DF8031001989DF8031001EB410100EBC4
:100A4000C101086940F00100086102B07047000070
:100A500083B002908DF807108DF8062002989DF85B
:100A6000071001EB410100EBC10000690090009804
:100A700020F0606000909DF80610009840EA416008
:100A80000090009802999DF8072002EB420201EBCA
:100A9000C201086103B0704782B001908DF8031065
:100AA00001989DF8031001EB410100EBC1010869B9
:100AB00020F00100086101989DF8031001EB41014D
:100AC00000EBC1010020086101999DF8032002EBB1
:100AD000420201EBC201486101999DF8032002EB3B
:100AE000420201EBC201886101999DF8032002EBEB
:100AF000420201EBC201C86101999DF8032002EB9B
:100B0000420201EBC201086201989DF8031001EB5B
:100B1000410100EBC101212048629DF80300032838
:100B200011DCFFE79DF8031001EB4100400001F0EC
:100B3000020100EB41013D2000FA01F201998868B1
:100B40001043886015E09DF8030004388DF8030019
:100B50009DF8031001EB4100400001F0020100EBA1
:100B600041013D2000FA01F20199C8681043C860B4
:100B7000FFE702B07047000083B002908DF80710C5
:100B800000929DF80700032811DCFFE700989DF80C
:100B9000072002EB4201490002F0020201EB420190
:100BA00000FA01F2029988681043886015E09DF808
:100BB000070004388DF8070000989DF8072002EB25
:100BC0004201490002F0020201EB420100FA01F287
:100BD0000299C8681043C860FFE703B0704700007F
:100BE00083B002908DF807108DF8062000939DF8D1
:100BF000060050B1FFE7009802999DF8072002EB2C
:100C0000420201EBC201086209E0009802999DF8D6
:100C1000072002EB420201EBC201C861FFE703B00B
:100C20007047000084B003908DF80B100192039878
:100C30009DF80B1001EB410100EBC101486A20F067
:100C4000040048620198006803999DF80B2002EBAC
:100C5000420201EBC20188610198806803999DF806
:100C60000B2002EB420201EBC201C8610198C0698E
:100C700003999DF80B2002EB420201EBC20148618F
:100C800003989DF80B1001EB410100EBC1000069D6
:100C90000090009848F23F71CFF6FC710840009038
:100CA000019A10699169126A40EA80001043014379
:100CB000009808430090009803999DF80B2002EBE0
:100CC000420201EBC20108610198406860B9FFE788
:100CD00003989DF80B1001EB410100EBC10108697D
:100CE00040F4007008611DE00198406801280CD1B3
:100CF000FFE703989DF80B1001EB410100EBC101E8
:100D0000086920F4007008610BE003989DF80B104F
:100D100001EB410100EBC101086940F400400861AA
:100D2000FFE7FFE70198C06860B9FFE703989DF807
:100D30000B1001EB410100EBC101086940F4806038
:100D400008610BE003989DF80B1001EB410100EBEB
:100D5000C101086920F480600861FFE701984069DB
:100D600060B9FFE703989DF80B1001EB410100EB20
:100D7000C101086940F4807008610BE003989DF898
:100D80000B1001EB410100EBC101086920F48070F8
:100D90000861FFE704B0704781B00090009900201F
:100DA0000860009A01215160009A9060009AD16019
:100DB000009A1061009A5161009988610099C86198
:100DC0000099086201B0704783B002908DF8071057
:100DD0000092009802999DF8072002EB420201EB75
:100DE000C201486103B0704782B001908DF80310D2
:100DF00001989DF8031001EB410100EBC10040692F
:100E000002B0704786B00590049103920598006A7D
:100E100001900598406A00900020ADF80A00FFE7B5
:100E2000BDF80A00072821D8FFE7BDF80A1003988B
:100E3000C840C00798B1FFE7BDF80A0081000F2045
:100E400000FA01F10198884301900498BDF80A1056
:100E5000890000FA01F1019808430190FFE7FFE7DC
:100E6000BDF80A000130ADF80A00D9E70820ADF856
:100E70000A00FFE7BDF80A000F2825D8FFE7BDF8F4
:100E80000A100398C840C007B8B1FFE7BDF80A00D0
:100E90006FF01F0101EB80020F2000FA02F20098B0
:100EA000904300900498BDF80A2001EB820100FAFB
:100EB00001F1009808430090FFE7FFE7BDF80A0042
:100EC0000130ADF80A00D5E701980599086200984D
:100ED0000599486206B0704787B006900591049264
:100EE00003930698006801900698C068009000205F
:100EF000ADF80A00FFE7BDF80A000F2832D8FFE777
:100F0000BDF80A100398C840C00720B3FFE7BDF83A
:100F10000A004100032000FA01F201999143019176
:100F20000599BDF80A20520001FA02F20199114315
:100F30000191BDF80A10490000FA01F100988843B8
:100F400000900498BDF80A10490000FA01F10098D9
:100F500008430090FFE7FFE7BDF80A000130ADF855
:100F60000A00C8E701980699086000980699C860C9
:100F700007B0704786B005908DF813100392029366
:100F80009DF81300012806D1FFE7029A05994868E9
:100F90001043486005E0029A05994868904348600C
:100FA000FFE70598806800900020ADF80600FFE795
:100FB000BDF806000F2821D8FFE7BDF806100298FB
:100FC000C840C00798B1FFE7BDF806004100032004
:100FD00000FA01F10098884300900398BDF80610CC
:100FE000490000FA01F1009808430090FFE7FFE78D
:100FF000BDF806000130ADF80600D9E70098059964
:10100000886006B07047000080B586B0002001906F
:10101000059000F08BFC0A200490049942F289406C
:10102000C0F6000000F0C0FA01988DF80F00FFE74D
:1010300040F20000C2F20000416D806D884267D02E
:10104000FFE740F20000C2F20000806D01684068D6
:10105000401A0130ADF80C009DF80F10BDF80C20BF
:1010600042F29140C0F6000000F09EFA9DF80F0099
:1010700001280DDBFFE740F20000C2F20000C0686B
:10108000017842F28040C0F6000000F08DFAFFE7E0
:101090000020ADF80A00FFE7BDF80A00BDF80C100B
:1010A000884216DAFFE740F20000C2F20000806DCD
:1010B0000068BDF80A10415C42F2AD40C0F6000085
:1010C00000F072FAFFE7BDF80A000130ADF80A003F
:1010D000E2E742F2AB40C0F6000000F065FA40F2F1
:1010E0000001C2F20001886D08308865886DC96D05
:1010F000884207D1FFE740F20001C2F20001081D5B
:101100008865FFE79DF80F0001308DF80F00FFE7BD
:101110008EE7000080B584B08DF80F008DF80E10BA
:101120008DF80D2000200290019000904EF60C509A
:10113000CEF20000006800F4E060B0F5E06F05D189
:10114000FFE700200190042000904AE04EF60C508A
:10115000CEF20000006800F4E060B0F5C06F05D189
:10116000FFE7012001900320009039E04EF60C507B
:10117000CEF20000006800F4E060B0F5A06F04D18A
:10118000FFE702200190009029E04EF60C50CEF2CD
:101190000000006800F4E060B0F5806F05D1FFE763
:1011A000032001900120009018E04EF60C50CEF282
:1011B0000000006800F4E060B0F5407F05D1FFE773
:1011C000042001900020009007E04FF4A06000F0A0
:1011D00037F8022001900090FFE7FFE7FFE7FFE705
:1011E000FFE79DF80E000199C1F1040188400290CB
:1011F0009DF80D000099C1F104020F21D14001407A
:1012000002980843029002980001029002989DF80B
:101210000F104EF20042CEF2000288549DF80F20CB
:1012200002F01F01012088404EF20011CEF20001B1
:1012300041EAD20121F00301086004B080BD000042
:1012400081B0009000980021C0F2FA5108434EF698
:101250000C51CEF20001086001B0704798B08DF8D3
:101260005F000020159040F20671C0F60811099148
:1012700040F20121C0F203410891079006900591C8
:1012800004900391029043F60800C4F20200006843
:10129000C0F3810016901698019040B1FFE70198C5
:1012A00001280AD0FFE7019802280CD03EE042F264
:1012B0000040C0F2F40014903EE041F20020C0F281
:1012C0007A00149038E043F60400C4F2020001688A
:1012D00001F03F0110910168C1F388110F9101687D
:1012E00001F44032022101EBD2310D91006800F48B
:1012F00080000E900E98B0F5800F06D1FFE741F206
:101300000020C0F27A000C9005E042F20040C0F2EA
:10131000F4000C90FFE70C981099B0FBF1F00F99D6
:1013200048430D99B0FBF1F0149005E042F2004003
:10133000C0F2F4001490FFE743F60800C4F2020084
:101340000168C9B209090B910B9A06A9895C0A9137
:1013500014990A9AD14013910168C1F382210B912B
:101360000B9A04A9895C0A9113990A9AD1401291A7
:10137000006880B2400B0B900B9902A8405C0A9069
:1013800013980A99C84011909DF85F00014600919A
:10139000032810D80099DFE801F00205080B149823
:1013A000159009E01398159006E01298159003E047
:1013B0001198159000E0FFE7159818B070470000ED
:1013C00081B0ADF80200BDF8020000F01F0201215B
:1013D00001FA02F3810943F60002C4F202028858BE
:1013E0001843885001B0704781B0ADF80200BDF8D5
:1013F000020000F01F02012101FA02F3810943F605
:101400000002C4F2020288589843885001B0704725
:1014100081B0ADF80200BDF8020000F01F0201210A
:1014200001FA02F3810943F60002C4F2020288586D
:101430001843885001B0704782B00020019043F6F5
:101440000001C4F20201086840F480300860FFE740
:1014500043F60000C4F2020001680020890300295D
:1014600000900AD4FFE70198411C01914FF6FF71EB
:10147000401A18BF01200090FFE70098C00708B18C
:10148000FFE7E5E743F60000C4F2020000688003CE
:1014900000280CD4FFE7FFE743F60000C4F2020087
:1014A00000688003002801D4FFE7F5E7FFE743F673
:1014B0004001C4F20201086840F08050086047F221
:1014C0000001C4F20001086840F44040086043F69F
:1014D0000801C4F2020108680860086840F400408E
:1014E0000860086840F4A050086043F60401C4F2A4
:1014F000020145F20840C0F24070086043F6000166
:10150000C4F20201086840F080700860FFE743F60B
:101510000000C4F2020000688001002801D4FFE747
:10152000F5E747F20001C4F20001086840F480309A
:101530000860FFE747F20400C4F200000068C0033F
:10154000002801D4FFE7F5E747F20001C4F20001EB
:10155000086840F400300860FFE747F20400C4F276
:10156000000000688003002801D4FFE7F5E743F698
:101570000801C4F20201086820F00300086008684E
:1015800040F002000860FFE743F60800C4F20200E2
:1015900000680007002801D4FFE7F5E702B07047B4
:1015A00080B5FFF749FF80BD83B080B585B0099352
:1015B00008920791049007A802900499029A40F6B5
:1015C0006000C2F2000000F0DBFA0020ADF80E006F
:1015D000FFE7BDF80E00019040F66000C2F2000087
:1015E000FEF7EEFD01460198884210D2FFE7BDF8F4
:1015F0000E1040F66000C2F20000405C00F070FA8D
:10160000FFE7BDF80E000130ADF80E00E1E705B0D0
:10161000BDE8804003B0704780B588B00790069160
:10162000002005900490039002900798019044F2E6
:101630000041C4F20001884242D0FFE7019844F61D
:101640000001C4F2000188423FD0FFE7019844F650
:101650000041C4F2000188423CD0FFE7019845F206
:101660000001C4F20001884239D0FFE7019847F633
:101670000001C4F20001884236D0FFE7019847F626
:101680000041C4F20001884233D0FFE7019841F2E3
:101690000001C4F20101884208D0FFE7019841F23D
:1016A0000041C4F20101884205D027E00320FFF782
:1016B000D5FD059023E00320FFF7D0FD05901EE047
:1016C0000220FFF7CBFD059019E00220FFF7C6FDD1
:1016D000059014E00220FFF7C1FD05900FE0022005
:1016E000FFF7BCFD05900AE00220FFF7B7FD05906B
:1016F00005E00220FFF7B2FD059000E0FFE7079844
:10170000C0680004002819D5FFE705984000069935
:1017100000EB5100B0FBF1F0029002984FF6F0712F
:10172000084004900298C0F342000390BDF81000F6
:10173000BDF80C1008430799886017E005980699D2
:1017400000EB5100B0FBF1F0029002984FF6F071FF
:1017500008400490029800F00F000390BDF81000BC
:10176000BDF80C10084307998860FFE708B080BDFA
:1017700081B00090009840686FF35F2001B070471F
:1017800082B00190ADF80210BDF802006FF35F2047
:101790000199486002B0704780B58AB009900998F5
:1017A000089044F20041C4F20001884241D0FFE7B2
:1017B000089844F60001C4F20001884242D0FFE7D5
:1017C000089844F60041C4F2000188424CD0FFE77B
:1017D000089845F20001C4F2000188424DD0FFE7AD
:1017E000089847F60001C4F2000188424ED0FFE796
:1017F000089847F60041C4F2000188424FD0FFE745
:10180000089841F20001C4F20101884208D0FFE7C4
:10181000089841F20041C4F2010188421BD047E020
:1018200040F604100790FFF7F3FD0798FFF7DCFD83
:101830003FE040F611000690FFF7EAFD0698FFF73B
:10184000D3FD36E040F612000590FFF7E1FD059864
:10185000FFF7CAFD2DE040F605100490FFF7D8FD14
:101860000498FFF7C1FD24E040F613000390FFF752
:10187000CFFD0398FFF7B8FD1BE040F6140002907F
:10188000FFF7C6FD0298FFF7AFFD12E040F61E001D
:101890000190FFF7BDFD0198FFF7A6FD09E040F6B6
:1018A0001F000090FFF7B4FD0098FFF79DFD00E0DA
:1018B000FFE70AB080BD000082B00190009101995D
:1018C000486920F040004861009800F0400201990A
:1018D00048691043486102B07047000081B0009031
:1018E0000099C86840F40050C86001B0704700001B
:1018F00083B00190ADF802100198BDF8021089097B
:101900004058BDF8021001F01F01C840C00720B1C7
:10191000FFE701208DF80B0003E000208DF80B009D
:10192000FFE79DF80B0003B07047000080B588B05A
:101930004FF44060FFF744FD41F20410FFF740FD13
:101940000020C4F2020002900221069100220592BA
:101950004FF400730093FFF7BFFA009B02980599BC
:1019600003220192FFF706FB009A029807210391D8
:10197000FFF748FA0298059A06994FF4806304939A
:10198000FFF7AAFA019A0298049B0599FFF7F2FA69
:1019900002980399049AFFF735FA41F20000C4F265
:1019A00001000790FFF7F8FE07984FF4E131FFF7C9
:1019B00033FE0599079800F06DF80599079800F037
:1019C000CFF80599079800F0A5F80798082100F0CE
:1019D000B1F80798042100F06DF807984FF44171B1
:1019E00000F016F84FF4A060FFF72AFC069A2520B5
:1019F0001146FFF78FFB07984021FFF75DFFFEF7C9
:101A000087FEFEF7CDFE0798FFF768FF08B080BDA0
:101A100082B00190ADF80210BDF8020000F01F0284
:101A2000012101FA02F3019982098858184388506C
:101A300002B0704785B003900291002001900090A1
:101A40000398BDF8081089094058029901F01F0257
:101A5000012101FA02F2104001900398029A920DBE
:101A60008058029AC2F304429140084000900098C6
:101A700038B1FFE7019820B1FFE701208DF813008E
:101A800003E000208DF81300FFE79DF8130005B078
:101A90007047000082B0019000910199C86820F45D
:101AA000C060C860009A0199C8681043C86002B05D
:101AB0007047000083B002900191002000900298CE
:101AC000C0680090009820F00400009001990098F0
:101AD0000843009000980299C86003B07047000066
:101AE00080B582B08DF807009DF8071041F2000024
:101AF000C4F20100FFF744FEFFE741F20000C4F228
:101B000001000721FFF7F4FE08B9FFE7F5E702B08F
:101B100080BD000082B0019000910199086920F415
:101B200040500861009A019908691043086102B0A9
:101B30007047000083B0029001910020009002984D
:101B4000C0680090009820F008000090019900986B
:101B50000843009000980299C86003B070470000E5
:101B600082B0019000910199C86820F48050C8604B
:101B7000009A0199C8681043C86002B0704700001D
:101B800037B514460846064B6A46214600F0DCF895
:101B900004466946002000F06EFC20463EBD000071
:101BA0007724000802E008C8121F08C1002AFAD1F1
:101BB00070477047002001E001C1121F002AFBD1CD
:101BC000704700002DE9FF5F82B00021DDE904309D
:101BD000020DDDF840B0034318D044F61050A2F2D5
:101BE000FF3242431514119801281FD0A5EB0B00BA
:101BF000401C5FEA000A4FF000064E4FDFF83891B4
:101C0000B046504615D5CAF1000413E011980124DE
:101C10004AA3012801D16FEA0B010298119AC0E989
:101C20000031C0E9024206B0BDE8F09FCBF10000F0
:101C3000DFE704460021404A491842EB0450CDE951
:101C4000001012E0E00707D032463B4640464946C6
:101C5000FEF7ABFB8046894632463B4610461946A6
:101C6000FEF7A3FB06460F466410002CEAD1DDE91F
:101C70000401DDE90023BAF1000F06DAFEF795FB57
:101C800042464B46FEF791FB05E0FEF700FC42465C
:101C90004B46FEF7FCFB04460E460022284BFEF79F
:101CA0007DFC03D84FF0FF30014607E00022254BB2
:101CB00020463146FEF7D2FAFEF758FC102409E020
:101CC000002C0ADB0A220023FEF797FA039B30322E
:101CD0001A55641E50EA0102F2D1641C039AC4F141
:101CE00011031444119A012A03D0012208430DD193
:101CF0000AE0084304D000204FF0110B119072E766
:101D0000A3EB0B056D1E0DE05B4504DD4FF00002FB
:101D100005F1010504E003DA4FF00002A5F1010529
:101D2000002AECD002981199C0E90231C0E90045BF
:101D300079E70000000014400000F03F3000000090
:101D40000000F0430000E03F2DE9FF4F95B09B46B7
:101D50008946064600250FE2252877D1002427462C
:101D6000F84A0121059400E0044316F8013F203BA6
:101D700001FA03F01042F7D130782A2811D06FF021
:101D80002F033078A0F13002092A16D8059A44F0C2
:101D9000020402EB820203EB42021044761C05901F
:101DA000EFE759F8042B0592002A03DA504244F475
:101DB0000054059044F00204761C30782E2816D189
:101DC00016F8010F44F004042A280DD06FF02F02FA
:101DD0003078A0F13003092B09D807EB870302EB19
:101DE0004303C718761CF3E759F8047B761C307858
:101DF0006C280FD006DC4C2817D068280DD06A2834
:101E000014D104E0742810D07A280FD10DE044F4E6
:101E100000140AE044F4801401E044F440147278A1
:101E2000824202D104F58014761C761C3078662834
:101E30000BD013DC582877D009DC002875D0452852
:101E4000F6D04628F4D047281AD19DE118E063283F
:101E500035D0642879D0652812D195E1702873D0E7
:101E600008DC6728F1D069286FD06E280DD06F2864
:101E700006D1B5E073282CD0752875D0782874D099
:101E80005A46179990476D1C75E1C4F30250022819
:101E900009D003280DD0D9F8001004280DD00D600A
:101EA00009F1040967E1D9F80010EA17C1E9005205
:101EB000F6E7D9F800100D80F2E70D70F0E719F899
:101EC000041B8DF8001000208DF80100EA46012067
:101ED00003E059F804AB4FF0FF3061074FF0000109
:101EE00002D40DE008F101018846B9420FDA8045BD
:101EF000F8DB1AF808100029F4D108E008F1010114
:101F000088468142FADB1AF808100029F6D10598B4
:101F10005B46A0EB080721463846179A00F094FA72
:101F2000284400EB080507E04DE029E10DE01AF830
:101F3000010B5A4617999047B8F10108F7D25B4652
:101F400021463846179A13E142E00A220092C4F370
:101F500002524FF0000A022A08D059F804CB032A93
:101F60004FEAEC710AD00DE029E02AE009F10701FF
:101F700021F00702F2E802C1914609E00FFA8CFC59
:101F80004FEAEC71042A03D14FFA8CFC4FEAEC7152
:101F9000002907DA0A460021DCF1000C61EB02019E
:101FA0002D2202E0220504D52B228DF804200122E7
:101FB00003E0E20701D02022F7E7904659E00A212A
:101FC00002E010220DE010214FF0000A00910BE01A
:101FD00010224FF0000A44F004040827009203E0A6
:101FE00008224FF0000A0092C4F30252022A05D0E0
:101FF00059F804CB0021032A08D009E009F10701B0
:1020000021F00702F2E802C1914605E01FFA8CFCBC
:10201000042A01D10CF0FF0C4FF00008220728D54C
:10202000702806D0009B83F0100353EA0A0305D002
:102030000EE040228DF80420012208E05CEA010253
:1020400006D030228DF804208DF80500022290463B
:10205000009B83F0080353EA0A030AD15CEA0102F9
:1020600001D1620705D530228DF804204FF0010818
:102070007F1E582804D034A003900EA802900DE0D3
:1020800036A0F9E753466046009AFEF7B6F8844654
:102090000398825C0298401E029002705CEA010084
:1020A000F0D1029806A9081A00F1200A600702D5AB
:1020B00024F4803400E00127574502DDA7EB0A0035
:1020C00000E0002000EB0A01009005984144401A0E
:1020D0000590E00306D45B462146179A059800F068
:1020E000B3F90544002706E001A85A46C05D1799D8
:1020F00090476D1C7F1C4745F6DBE0030CD55B4623
:102100002146179A059800F09FF9054404E0302015
:102110005A46179990476D1C0099481E0090002957
:10212000F5DC08E0029802995A460078491C0291B1
:10213000179990476D1CBAF10001AAF1010AF1DC70
:1021400065E100000928010030313233343536377B
:1021500038396162636465660000000030313233F3
:102160003435363738394142434445460000000093
:1021700000F058F90544761C307800287FF4ECAD67
:1021800019B02846BDE8F08F620700D4062709F190
:10219000070222F0070CFCE80223E14603F00048A6
:1021A0005FEA080C02D00FF2702C0DE05FEA045CCD
:1021B00002D50FF2682C07E05FEAC47C02D00FF270
:1021C000602C01E0AFF2700C4FF0FF3823F00043B9
:1021D000CDF850C065280CD006DC452809D046282B
:1021E0001DD047283DD13DE0662818D067287ED114
:1021F00038E00021112F01DB112000E0781CCDE92F
:10220000000106A90EA8FFF7DDFCDDE90F010E9A1B
:1022100003910021009207F1010A04914DE04FF073
:1022200000400097CDE9011006A90EA8FFF7CAFCEF
:10223000DDE90F0203920E9B11990022DDF80CA03C
:102240000093049211B9791C00EB010AB7EB0A0064
:1022500004D4C0F1FF3007F1010A0490AAEB070093
:10226000019044E0012F00DA01270021112F01DD48
:10227000112000E03846CDE9000106A90EA8FFF7BD
:10228000A1FCDDE90F010E9A039100210491009257
:10229000BA4621070CD40399514500DA8A46BAF1AF
:1022A000010F05DD009AAAF10101515C302908D027
:1022B000B84202DA10F1040F06DA0121CDE901106B
:1022C00015E0AAF10101E9E7002805DC04990144C1
:1022D0000491AAEB000102E0411C514500DD8A4651
:1022E0000499401A401C01904FF0004002902007D2
:1022F00004D40198504501DBCDF8048000208DF80E
:102300004F0002980DF14F07B0F1004F25D02B2060
:102310000E9002984FF0020800280CDA404202901A
:102320002D200E9007E00A210298FDF750FF303172
:10233000029007F8011DB8F10001A8F10108F2DCD4
:1023400002980028EFD1791E0E980870307800F0BE
:10235000200040F0450007F8020D12A8C01B00F154
:1023600007081498007800B1012000EB0A010198D9
:1023700001EBE07105984144401A401E0590E003CE
:1023800006D45B462146179A059800F05DF805448F
:102390001498007818B15A46179990476D1CE003BD
:1023A00024D55B462146179A059800F04DF8054460
:1023B0001CE00498002807DBDDE90301884203DD07
:1023C0000098405C179901E0179930205A469047D1
:1023D000049805F10105401C04900198401E0190ED
:1023E00004D12E205A46179990476D1CBAF100016E
:1023F000AAF1010ADDDC05E017F8010B5A4617992E
:1024000090476D1CB8F10001A8F10108F4DC5B46AF
:102410002146179A0598ABE62D0000002B0000001E
:10242000200000002DE9F041044600251E46174615
:10243000880404D405E039462020B0476D1C641E92
:10244000F9D52846BDE8F0812DE9F0410446002584
:102450001E469046C80301D5302700E02027880497
:1024600004D505E041463846B0476D1C641EF9D5D9
:102470002846BDE8F0810A68531C0B601070704755
:10248000646464202025630A0061203D2025640ADD
:1024900000B8C3C6ACC7F820256420C4DAD3D02066
:1024A000256420B8F6D4AACBD8A3BA0A00256300C5
:1024B00069646C652025642025640A00CC2400082A
:0C24C0000000002060140000B41B0008A5
:040000050800018965
:00000001FF
