:020000040800F2
:10000000C00D00209D010008771F00085F1E00083A
:10001000751F0008A9020008112600080000000052
:100020000000000000000000000000001D2100088A
:100030005D03000800000000791F00081F21000870
:10004000B7010008B7010008B7010008B7010008B0
:10005000B7010008B7010008B7010008B7010008A0
:10006000B7010008B7010008B7010008B701000890
:10007000B7010008B7010008B7010008B701000880
:10008000B7010008B7010008B7010008B701000870
:10009000B7010008B7010008B7010008B701000860
:1000A000B7010008B7010008B7010008B701000850
:1000B000B7010008B7010008B7010008B701000840
:1000C000B7010008B7010008B7010008B701000830
:1000D000B701000805260008B7010008B7010008AD
:1000E000B7010008B7010008B7010008B701000810
:1000F000B7010008B7010008B7010008B701000800
:10010000B7010008B7010008B7010008B7010008EF
:10011000B7010008B7010008B7010008B7010008DF
:10012000B7010008B7010008B7010008B7010008CF
:10013000B7010008B7010008B7010008B7010008BF
:10014000B7010008B7010008B7010008B7010008AF
:10015000AD020008B7010008B7010008B7010008A8
:10016000B7010008B7010008B7010008B70100088F
:10017000B7010008B7010008B7010008000000003F
:10018000B7010008B7010008DFF80CD000F07AF8DA
:10019000004800478D2C0008C00D0020064880470D
:1001A00006480047FEE7FEE7FEE7FEE7FEE7FEE75C
:1001B000FEE7FEE7FEE7FEE7B92100088901000837
:1001C0002DE9F05F0546002092469B46884606468C
:1001D000814640241BE0284641464746224600F01F
:1001E00041F853465A46C01A914110D31146184659
:1001F000224600F028F82D1A67EB01084F462246E8
:100200000120002100F01FF817EB00094E41201ECD
:10021000A4F10104DFDC484631462A464346BDE8E6
:10022000F09FD2B201E000F8012B491EFBD27047CB
:100230000022F6E710B513460A4604461946FFF7B2
:10024000F0FF204610BD202A04DB203A00FA02F11C
:10025000002070479140C2F1200320FA03F31943B4
:1002600090407047202A04DB203A21FA02F0002156
:10027000704721FA02F3D040C2F1200291400843B6
:1002800019467047064C074D06E0E06840F0010350
:1002900094E8070098471034AC42F6D3FFF778FF94
:1002A000B82E0008D82E0008FEE70000014800F034
:1002B000C1B900001409002001681823CAB2103A1D
:1002C000B2FBF3F2054B6FF30901032A9B5CC36594
:1002D00000D9091D8165084670470000962E000868
:1002E00010B5014600208B698A6A4FF0C07453B183
:1002F000B3F5005F15D072B1012A0CD0022A0AD0E2
:10030000032A09D104E01AB1012A06D0022A03D136
:10031000C96AC90100D5012010BDC96AA142FAD03D
:1003200010BD002AF7D0012AF2D0022AF3D0032A06
:10033000F3D010BD30B50468256825F4802525600C
:10034000046863608368402B036803D09960006889
:10035000C26030BD9A600068C16030BD704772B63F
:10036000FEE70000002229B101291AD002291BD082
:100370004FF440720E490B6823F440730B600B6816
:1003800013430B600A6822F0F8020A600A6802232D
:1003900003EBC00002430A60086840F48030086044
:1003A00070474FF48072E5E74FF40072E2E7000017
:1003B000103C02401348016889050FD5016821F4FB
:1003C00000710160016841F400610160016821F47D
:1003D00000610160016841F4007101600168490534
:1003E0000FD5016821F480610160016841F48051FA
:1003F0000160016821F480510160016841F480616D
:1004000001607047003C024008490A6822F44072CB
:100410000A600A6842F004020A600A684FF48033F6
:1004200043EA002002430A6070470000103C02408B
:10043000064A136823F4407313601368136013684B
:1004400043F001031360017070470000103C02404C
:10045000094910B50C6824F440740C600C6844F42D
:1004600040740C600C6844F001040C600260BFF33F
:100470006F8F436010BD0000103C0240074A1368B4
:1004800023F440731360136843F48073136013689C
:1004900043F001031360018070470000103C0240EC
:1004A000074A136823F440731360136843F400731E
:1004B0001360136843F0010313600160704700008C
:1004C000103C024017490868C206174805D5C269A2
:1004D00042F01002C26110220A600A68920605D535
:1004E000C26942F00802C26120220A600A6852060C
:1004F00005D5C26942F00402C26140220A600A685E
:10050000120605D5C26942F00202C26180220A6069
:100510000A68920705D5C26942F02002C261022032
:10052000086070470C3C02407409002070B5114906
:1005300004460020C86100F0A9FB06460E4D09E004
:10054000601C07D024B100F0A1FB801BA04201D9A0
:10055000032070BD2868C003F2D42868C00701D00A
:1005600001202860286810F0F200F2D0FFF7AAFFFF
:10057000012070BD740900200C3C02402DE9F041BF
:100580000446876D00F082FB064694F8350000258E
:10059000022806D08020606584F834500120BDE830
:1005A000F0812068016821F016010160206841692E
:1005B00021F080014161206C08B9A06C20B1206855
:1005C000016821F0080101602068016821F0010143
:1005D00001600CE000F05AFB801B052807D92020A1
:1005E0006065032084F8350084F83450D7E720682C
:1005F0000068C007EED194F85C103F208840B860D6
:10060000012084F8350084F834500020C7E790F8C2
:100610003510022903D08021416501207047052152
:1006200080F835100068016821F0010101600020A8
:10063000704700002DE9F84304464FF00009CDF85B
:10064000009063484FF41651A56D0068B0FBF1F7B8
:100650002E6894F85C10082000FA01F131420FD0A6
:1006600021680A6852070BD50A6822F004020A6062
:1006700094F85C108840A860606D40F001006065EF
:1006800094F85C104FF0010808FA01F0304208D0ED
:1006900021684969090604D5A860606D40F0020030
:1006A000606594F85C1004208840304208D02168CE
:1006B0000968890704D5A860606D40F00400606592
:1006C00094F85C1010208840304218D021680968E6
:1006D000090714D5A86020680168490304D500689B
:1006E000000308D5A16C07E00168C90503D40168BF
:1006F00021F008010160216C09B12046884794F877
:100700005C1020208840304231D021680968C90639
:100710002DD5A86094F8350005282068016806D01A
:10072000490347D5006800031DD4616C1CE021F02B
:10073000160101602068416921F080014161206C4F
:1007400008B9A06C20B12068016821F0080101609F
:1007500094F85C103F208840A86084F8358084F8C5
:100760003490216D1FE0E16B09B120468847606D30
:1007700000282BD0606DC00714D0052084F8350008
:100780002068016821F0010101600098401C009080
:10079000B84203D820680068C007F6D184F83580D5
:1007A00084F83490E16C002910D001B02046BDE8F7
:1007B000F04308470168C905D5D4016821F010014C
:1007C000016084F8358084F83490CCE7BDE8F88384
:1007D0000C0000202DE9F041044600F057FA0646CF
:1007E0005CB1022084F83500002584F8345020687C
:1007F000016821F0010101600DE00120BDE8F081F8
:1008000000F044FA801B052805D9202060650320EC
:1008100084F83500F2E720680068C007F0D122684C
:10082000116820480140D4E901031843D4E9033694
:100830003343184363691843A3691843E3691843B2
:10084000236A18430843616A042903D1D4E90B13CE
:1008500019430843106020684069666A20F0070168
:1008600030460E43012704280CD1A06A0643E06AF3
:1008700040B12046FFF734FD20B14020606584F888
:100880003570BAE7206846612046FFF715FD94F8F9
:100890005C203F2191408160656584F835700020BF
:1008A000ACE700003F8010F02DE9F0410446866D72
:1008B00090F83400002501280DD0012084F8340080
:1008C00094F835700020012F07D084F834000225F9
:1008D0002846BDE8F0810220FBE7022784F8357046
:1008E00060652046FFF726FD94F85C103F208840A5
:1008F000B0602068016841F016010160206C20B1F1
:100900002068016841F0080101602068016841F039
:1009100001010160DCE7000070B5044600F0B6F9A3
:100920000546601C02D004480078044400F0AEF98B
:10093000401BA042FAD370BD000000202DE9F04713
:10094000044622480F46017E01290AD00121804633
:1009500001764CF250394846FFF7E8FD020003D01B
:100960002FE00220BDE8F0874FF0FF3038602068AC
:10097000174D012801D0A6681CE0207C6168FFF7B4
:1009800043FD4846FFF7D2FD0246286820F00400E8
:10099000286014E0217C3046FFF7E4FC4846FFF76E
:1009A000C5FD0200286820F0FA00286001D03E60F2
:1009B00005E0761CD4E902100844B042EAD8FFF7FB
:1009C000F9FC002188F818101046CBE774090020C4
:1009D000103C02400348016841F0004101600020E2
:1009E00070470000103C02402DE9F0471B4E0546C1
:1009F0001446307E1F468946012808D001203076F3
:100A00004CF250384046FFF791FD18B114E0022037
:100A1000BDE8F0879DB1012D16D0022D19D02246D8
:100A20003B464846FFF714FD4046FFF77FFD0C4963
:100A30000A6822F001020A6000213176E8E7E1B29B
:100A40004846FFF7F5FCEFE7A1B24846FFF716FD71
:100A5000EAE721464846FFF723FDE5E77409002051
:100A6000103C0240074900200A68002A09DA054ABA
:100A7000054B0C3A1360054B13600968002900DA36
:100A800001207047103C024023016745AB89EFCD40
:100A90002DE9F84FDFF8BCA10022012503264FF015
:100AA0000F090AF1040BAAF1040E00BF0B6805FA46
:100AB00002F42340A34270D10F7907F00307012FFE
:100AC00001D0022F16D187684FEA420806FA08FCC7
:100AD00027EA0C07D1F80CC00CFA08FC4CEA070C0A
:100AE000C0F808C04768A7430C79C4F300149440C9
:100AF0003C4344600C79E443A4070AD0C4684FEA3D
:100B0000420C06FA0CF7BC438F6807FA0CF7274330
:100B1000C7600C7904F00304022C12D1D40800EB56
:100B2000840CDCF820405707FF0E09FA07F824EA86
:100B30000804D1F8108008FA07F848EA0408CCF84D
:100B4000208004684FEA420C06FA0CF7BC430F7988
:100B500007F0030707FA0CF7274307604C6814F403
:100B6000403F70D03C4C276847F48047276024689A
:100B700022F0030704F480440094384C07EB040C83
:100B8000DCF8084897074FEA177809FA08F7BC43DA
:100B9000334FB84202D1002724E054E0314FB8422D
:100BA00001D101271EE0304FB84201D1022719E0E0
:100BB0002E4FB84201D1032714E02D4FB84201D186
:100BC00004270FE02B4FB84201D105270AE02A4F36
:100BD000B84201D1062705E0284FB84201D10727C6
:100BE00000E0082707FA08F72743CCF80878DAF876
:100BF00000405746D1F804C09C435FEACC2C00D596
:100C00001C433C60DBF800405F46D1F804C09C43C5
:100C10005FEA8C2C00D51C433C60DEF80040774630
:100C2000D1F804C09C435FEA8C3C00D51C433C6077
:100C3000084F083F3C68D1F804C09C435FEACC3CB5
:100C400000D51C433C60521C102AFFF42FAFBDE8B6
:100C5000F88F0000083C0140443802400030014059
:100C6000000002400004024000080240000C024064
:100C7000001002400014024000180240001C024014
:100C80000AB1816170470904FBE7000001488068F0
:100C9000704700000000002002488168027811447B
:100CA00081607047000000200B4810B5016841F4D6
:100CB00000710160016841F480610160016841F4E4
:100CC00080710160032000F06FF8012000F006F849
:100CD00000F024F8002010BD003C024070B50D4D1E
:100CE00004464FF47A712878B1FBF0F00A4909689C
:100CF000B1FBF0F000F0F1FD48B9102C07D2002252
:100D00002146501E00F030F800206C6070BD0120BC
:100D100070BD0000000000200C0000200A4808B54B
:100D2000016841F480410160006800F48040009057
:100D30000548001F016841F080510160006800F023
:100D40008050009008BD000044380240002809DBB4
:100D500000F01F02012191404009800000F1E020D5
:100D6000C0F8001170470000F0B40E4B1B680C4631
:100D7000C3F30223C3F10705042D00D90425191D6F
:100D8000072901D2002300E0DB1E012606FA05F147
:100D9000491E214099409E40761E16403143F0BCCA
:100DA00001F0B6BD0CED00E0064900F0070208684E
:100DB0004FF6FF03184040EA0220034A1043086040
:100DC000704700000CED00E00000FA052DE9F04747
:100DD0000E46050065D0DFF81481D8F80000F7B2A0
:100DE00000F00700B04207D288F80070D8F8000081
:100DF00000F00700B04254D128683D4C810712D55D
:100E0000400703D5206840F4E050206028780007B0
:100E100003D5206840F4604020602068A96820F075
:100E2000F000084320602878C0072DD0304968685A
:100E30000839012812D0022813D0032811D00968DC
:100E4000890700292DDA216821F00301014321607F
:100E5000FFF71CFF814641F2883A0EE009688903DA
:100E6000EFE709688901ECE7FFF710FFA0EB090144
:100E7000514502D90320BDE8F0872068696800F079
:100E80000C00B0EB810FEFD1D8F80010404601F014
:100E90000701B14207D90770006800F00700B042AF
:100EA00001D00120E7E72878400705D52068E968E8
:100EB00020F4E050084320602878000706D5206819
:100EC000296920F4604040EAC100206000F038F851
:100ED0002168084AC1F30311515CC8400649086003
:100EE00006480068FFF7FAFE0020C4E7003C024015
:100EF000083802409E2E00080C000020040000204C
:100F00000448054900680968044AC1F38221515C1C
:100F1000C84070470C00002008380240AE2E000880
:100F20000448054900680968044AC1F34231515C2C
:100F3000C84070470C00002008380240AE2E000860
:100F4000154810B5006810F00C02144813D0411079
:100F5000042A0FD0082A0ED10F4C241F22682368C0
:100F600002F03F025B0207D52068C0F38810A0FBA7
:100F7000010106E0084610BD2168C1F38811A1FBFC
:100F800000010023FFF71CF92168C1F30141491C4E
:100F90004900B0FBF1F010BD083802400024F40015
:100FA0002DE9F84F04006ED02078DFF84C93C0078D
:100FB000A9F104054AD009F104000168C1F38101D7
:100FC000012908D00068C0F3810002280AD1D9F8AD
:100FD0000000400206D52868800337D560680028E5
:100FE000E1D033E06068B0F5803F10D0B0F5A02FBD
:100FF000286810D020F480302860286820F48020F1
:1010000028606068A8B1FFF741FE06460DE0286839
:1010100040F48030F4E740F480202860F7E700BF18
:10102000FFF734FE801B642873D828688003F7D547
:101030000CE0FFF72BFE064605E000BFFFF726FE9B
:10104000801B6428F0D828688003F7D42078DFF864
:10105000AC8280074FF0000A3ED5A748001D01680A
:1010600011F00C0F08D00068C0F3810002280BD1EA
:10107000D9F80000400207D42868800716D5E06838
:10108000012800D112E033E1E068B8B10120C8F8CE
:101090000000FFF7FBFD064605E000BFFFF7F6FD89
:1010A000801B0228C0D828688007F7D528682169E6
:1010B00020F0F80040EAC10028600DE0C8F800A068
:1010C000FFF7E4FD064604E0FFF7E0FD801B022881
:1010D0001FD828688007F7D42078000722D5864FCC
:1010E00087486169703771B101210160FFF7CEFD5A
:1010F000064604E0FFF7CAFD801B022809D83868BD
:101100008007F7D50EE0C0F800A0FFF7BFFD064648
:1011100005E082E0FFF7BAFD801B02287DD8386821
:101120008007F7D42078400768D5DFF8CCB10027D6
:101130000BF13C0BDBF80000C0000BD4DBF8001017
:1011400041F08051CBF80010DBF80000012700F0DF
:10115000805000906B4E3068C00510D4306840F469
:1011600080703060FFF792FD009005E0FFF78EFD84
:101170000099401A022850D83068C005F6D55E4E56
:10118000A0686C3601280FD00528306810D020F0F8
:1011900001003060306820F004003060A068B8B111
:1011A000FFF774FD00900FE0306840F00100F4E7B5
:1011B00040F004003060F7E7FFF768FD0099411A3E
:1011C00041F28830814266D830688007F4D50EE05D
:1011D000FFF75CFD009007E0FFF758FD0099411A0A
:1011E00041F28830814256D830688007F4D42FB15C
:1011F000DBF8001021F08051CBF80010A069C8B3D3
:101200003D49091D0968C1F3810102294AD002281C
:10121000504607D0C8F8600000E03CE0FFF736FD1C
:1012200004463BE04746C8F86000FFF72FFD06463E
:1012300005E000BFFFF72AFD801B02282BD8286895
:101240008001F7D4D4E907010843A16A2E4A49086E
:1012500002EB0141626A41EA8211084394F82C10C2
:1012600040EA0161C9F8001001203866FFF70EFD61
:10127000044606E03EE000BFFFF708FD001B022821
:1012800009D828688001F7D534E000BFFFF7FEFCDD
:10129000001B022802D90320BDE8F88F28688001CE
:1012A000F4D427E00128F7D0D9F80000E26900F46F
:1012B000800191421CD1226A00F03F01914217D176
:1012C00047F6C071626A0140B1EB821F10D1A26A79
:1012D0004FF0FF3300F4403103EB5202B1EB024F09
:1012E00006D194F82C1000F07060B0EB016F01D0C3
:1012F0000120D1E70020CFE7043802400000474238
:10130000800E4742007000400000FFFF70B50400EF
:1013100009D0606A002540B125616561A56294F835
:10132000510040B10CE0012070BD6068B0F5827FD3
:10133000F4D0E561F2E784F85050204600F044F81C
:10134000022084F851002068016821F0400101600A
:10135000A088218900F4827001F404410843A18926
:1013600001F400610843217C01F002010843217D62
:1013700001F001010843218B01F400710843217F32
:1013800001F03801084394F8201001F0800108436F
:10139000218D01F40051084321680860A0690421EF
:1013A00001EA104094F8241001F01001084321686C
:1013B00048602068C16921F40061C1616565012050
:1013C00084F85100002070BD10B586B00446142189
:1013D0006846FEF72DFF13492068884220D1124845
:1013E0000021026842F480520260006800F48050DC
:1013F00005900D481438026842F00102026000684E
:1014000000F001000590E02000900220CDE90101EC
:10141000032003900520049069460448FFF738FB39
:1014200006B010BD003001404438024000000240C8
:101430002DE9F84F044690F851001D4616460F4618
:10144000012838D160684FF00408B0F5827F01D1DF
:10145000A06830B3FFF71AFC8246002F75D0002E2B
:1014600073D094F85000012825D04FF0010984F87A
:10147000509084F851804FF00008C4F85480A7635E
:10148000A687E687C4F83080A4F83480A4F83680B4
:10149000C4F84080C4F84480A068B0F5004F0CD078
:1014A00015E084F85180009313460A46204600F068
:1014B0001CF9BDE8F88F0220FBE72068016821F0E5
:1014C000400101602068016821F4804101602068CA
:1014D0000168490603D4016841F040010160E068F9
:1014E000C0B134E020688168C90709D0007BA16BD6
:1014F0000870A06B401CA063E08F401EE08709E0ED
:10150000FFF7C4FBA0EB0A00A84202D3681C01D07D
:1015100032E085B3E08F0028E4D11BE020688168C9
:10152000C90709D0C068A16B0880A06B801CA063AC
:10153000E08F401EE0870AE0FFF7A8FBA0EB0A005F
:10154000A84203D3681C02D016E012E09DB1E08FE0
:101550000028E3D152462946204600F01FFD08B17D
:101560002020606584F8519084F85080606D0028D8
:101570009FD001209DE7FFE784F8519084F85080C8
:10158000032096E72DE9F84F984616468A4604460A
:10159000FFF77CFB814694F8510001281ED1BAF177
:1015A000000F73D0002E71D094F85000012815D090
:1015B000012784F85070032084F8510000256565E8
:1015C000C4F830A0A686E686A563A587E58765648E
:1015D0002564A068B0F5004F03D00CE00220BDE800
:1015E000F88F2068016821F04001016020680168DF
:1015F00041F48041016020680168490603D4016814
:1016000041F040010160E068B0F5006F606803D010
:1016100048B3012E27D047E008B1012E1FD1206B1F
:1016200021680088C86006E020688168890709D5BC
:10163000216B0988C160206B801C2063E08E401EF6
:10164000E0860CE0FFF722FBA0EB0901414503D344
:10165000B8F1FF3F03D035E0B8F1000F32D0E08E93
:101660000028E1D123E0206B21680078087306E0B0
:101670002068816889070AD5216B09780173206B7E
:10168000401C2063E08E401EE0860DE02BE0FFF75B
:10169000FDFAA0EB0901414503D3B8F1FF3F03D0A8
:1016A00010E0B8F1000F0DD0E08E0028E0D14A46DE
:1016B0004146204600F0A0FC08B120206065A068EB
:1016C00030B109E084F8517084F85050032086E767
:1016D0002068C1688068009084F8517004F8505FF9
:1016E00060680028F3D0012079E72DE9FF4F81B031
:1016F0001D46934604464FF001090E9EFFF7C6FAB9
:10170000074694F851006168012806D0B1F5827F40
:101710003CD1A168C9BB042838D10298002871D0F7
:10172000BBF1000FFBD0002DF9D094F85000012838
:101730002CD04FF0010A84F850A094F851000428EE
:1017400002D0052084F851004FF00008C4F85480FE
:10175000C4F838B0E587A58702992163E586A58698
:10176000C4F84080C4F8448020680168490603D466
:10177000016841F040010160E068B0F5006F606809
:1017800008D0F0B3012D49D081E0FFE7022005B079
:10179000BDE8F08F08B1012D39D1206B2168008898
:1017A000C860206B801C2063E08E401EE0862EE027
:1017B0002068816889070FD5E18E69B1B9F1010F01
:1017C0000AD1216B0988C160206B801C2063E08EE8
:1017D000401EE0864FF0000920688168C9070CD0E0
:1017E000E18F51B1C068A16B0880A06B801CA06321
:1017F000E08F401EE0874FF00109FFF747FAC01B5A
:1018000001E00BE067E0B04201D3701C50D1E08EE4
:101810000028CDD1E08F0028CAD13EE0206B21689E
:1018200000780873206B401C2063E08E401EE08629
:101830002DE02068816889070FD5E18E69B1B9F183
:10184000010F0AD1216B09780173206B401C2063C2
:10185000E08E401EE0864FF0000920688168C907CD
:101860000CD0E18F51B1C068A16B0870A06B401C17
:10187000A063E08F401EE0874FF00109FFF706FAF2
:10188000C01BB04202D3701C01D011E086B1E08EC3
:101890000028CED1E08F0028CBD13A4631462046F1
:1018A00000F0AAFB50B12020606584F8508012E05F
:1018B00084F851A084F85080032068E7A06818B924
:1018C0002068C1688068009084F851A084F8508036
:1018D000606D0028F1D0012059E710B5401EB0F12D
:1018E000807F01D3012010BD4FF0E02460610F2103
:1018F000601701F00DF80020A06107202061002092
:1019000010BD38B5044690F84200202801D00220CE
:1019100038BD61B15AB101202063002060632046C8
:1019200000F0EEFD0028F3D1216B012901D0012048
:1019300038BD21680A684968009121680C3151E876
:10194000002F42F0100241E80023002BF5D138BDF2
:1019500070B5164C2088084480B215492080084490
:10196000616D4860606D08306065E16D884201D14D
:10197000201D606521884FF48075C1F500620D4817
:10198000AA4203DD0844616D086003E0616D0860F0
:1019900000202080084800F011F8606D2A46016898
:1019A000BDE870400448FFF7ACBF000014080020F9
:1019B0001300002014000020CC08002010B50446BD
:1019C0000068406994F84110C0F3C010212911D17A
:1019D00080B12068143050E8001F21F0800140E8F9
:1019E0000012002AF5D1A06B08B1FEF7C7FD204612
:1019F00000F090FC2068406994F84210C0F3801019
:101A0000222911D180B12068143050E8001F21F044
:101A1000400140E80012002AF5D1E06B08B1FEF762
:101A2000ADFD204600F04FFC002010BD70470000C7
:101A3000F8B5016804460868CA684B6910F00F0FD2
:101A40004FF0000559D003F0010602F490773743B8
:101A500065D0C10705D0D10503D5616C41F0010106
:101A60006164410705D5D90703D0616C41F00201DB
:101A70006164810705D5D90703D0616C41F0040189
:101A80006164010707D502F02001314303D0616C86
:101A900041F008016164616C00293AD0800604D5E8
:101AA000900602D5204600F043FC20684069616C36
:101AB000C0F38010090700D460B3204600F003FC97
:101AC00020684069400621D52068143050E8001F86
:101AD00021F0400140E80012002AF5D1E06BA8B1E6
:101AE0006E490165E06BFEF792FD002811D0E06BB6
:101AF000016D01B0BDE8F040084783060FD593069D
:101B00000DD52046BDE8F84000F012BC2046FFF796
:101B10008DFFF8BD2046FFF789FF6564F8BD266B91
:101B20002023012E7DD1C6067BD5D60679D508683F
:101B30004868009048694FF00206400641D5E16BC5
:101B4000086840680004000CE8D0A28D8242E5D904
:101B5000E085C869B0F5807F2DD020680C3050E852
:101B6000001F21F4807140E80012002AF5D120689E
:101B7000143050E8001F21F0010140E80012002A53
:101B8000F5D12068143050E8001F21F0400140E8F2
:101B90000012002AF5D184F84230256320680C3009
:101BA00050E8001F21F0100140E80012002AF5D192
:101BB000E06BFEF7E3FC6663A08DE18D401A81B215
:101BC0002AE0A08DE18D401A81B2E08D0028A5D0D9
:101BD0000029A3D022680C3252E8000F20F4907044
:101BE00042E80007002FF5D12068143050E8002F9C
:101BF00022F0010240E80027002FF5D184F842309E
:101C0000256320680C3050E8002F22F0100240E8D5
:101C10000023002BF5D166632046FFF799FEF8BD3F
:101C2000FFE705062BD5150629D594F84100212894
:101C3000F5D1A068B0F5805F01D12069B0B1206A0C
:101C4000411C2162216800784860E08C401E00043D
:101C5000000CE084E3D12068C16821F08001C160FC
:101C60002068C16841F04001C160D8E7206A00885F
:101C7000C0F308004860206A801C2062E5E7400647
:101C8000CDD55006CBD5CA68204622F04002CA60A6
:101C900084F8413000F0E2F8C1E70000C9210008F3
:101CA00070B5040004D094F84100002510B106E09E
:101CB000012070BD84F84050204600F023F8242015
:101CC00084F841002068C16821F40051C1602046B9
:101CD00000F090FB2068016921F4904101612068C7
:101CE000416921F02A0141612068C16841F4005135
:101CF000C1606564202084F8410084F84200656377
:101D0000002070BD70B586B0064614216846FEF707
:101D10008FFA24493068884241D123480025016860
:101D200041F010010160006800F0100005901E48AD
:101D30001438016841F0010101600068694600F053
:101D4000010005904FF4C06000900220CDE901052C
:101D500003200390072004901448FEF799FE154CC9
:101D6000134820604FF00060C4E901054014C4E945
:101D700003506561C001A561C4E907502046656252
:101D8000FEF728FD08B1FEF7EAFAF463002203210A
:101D90002520A663FEF7E8FF2520FEF7D7FF06B053
:101DA00070BD0000001001404438024000000240B5
:101DB0008864024014090020704770472DE9F843F9
:101DC000044690F84100984616460D46202802D059
:101DD0000220BDE8F88385B17EB100206064212037
:101DE00084F84100FEF752FFA6848146E684A0688D
:101DF0002027B0F5805F02D003E00120E9E72069E9
:101E000010B12E4600250EE000260CE08021204671
:101E100000F0BEFBA8B9C6B116F8010B21684860F6
:101E2000E08C401EE084E08C4B464FF00002CDF881
:101E300000800028EAD14FF04001204600F0A8FBC6
:101E400040B184F841700320C3E735F8020BC0F3BA
:101E50000800E3E784F841700020BAE77047FEE726
:101E6000094808B5016841F480010160006800225A
:101E700000F48000009011464420FEF775FFBDE895
:101E800008404420FEF762BF3038024010B586B0EB
:101E900014216846FEF7CCF91548016841F00401A9
:101EA0000160016801F004010591016841F08001C1
:101EB0000160016801F080010591016841F00101B4
:101EC000016000680B4C00F0010005900122102118
:101ED0002046FEF7D5FE10200121CDE900010320A8
:101EE000CDE9021069462046FEF7D2FD06B010BDCE
:101EF00030380240000002400F4810B50D49016023
:101F00004FF48271416000218160C1604FF4007222
:101F10000161C0E90512C1610162416281620A2169
:101F2000C162FFF7F3F9002803D0BDE81040FEF7C7
:101F300016BA10BD00300140740800200C4810B5DE
:101F40000A4901604FF4E1314160002181600C22B7
:101F5000C160C0E904128161C161FFF7A1FE0028E0
:101F600003D0BDE81040FEF7FAB910BD00100140E3
:101F7000CC080020FEE7FEE7704700000648011F7E
:101F8000A0F604024865886502600020088001F11F
:101F90004C00C8657047000018080020F8B50446DA
:101FA00040684FF48273984221D1A0684FF4806555
:101FB000B0F5004F01D0A8420AD12068066826F08B
:101FC000400606606068984211D1A068A8420ED011
:101FD00000920B4600228021204600F043F80028A2
:101FE00004D0606D40F0200060650320F8BD0092D1
:101FF0000B4600220121EFE7F8B515460E460B46C9
:10200000009204460122022100F02CF8A0B91348E6
:1020100013490068B0FBF1F04FF47A714843009027
:102020006068B0F5827F0DD13346002280212046C2
:10203000009500F017F870B1606D40F02000606509
:102040000320F8BD009830B1401E009020688068E1
:10205000C0430006F6D50020F8BD00000C000020AB
:1020600000366E012DE9F8431E4691468846044627
:10207000089DFEF70BFE401B351AFEF707FE0746CC
:1020800025480068C0F3CB30684338E0701C37D077
:10209000FEF7FCFDC01BA84203D215B1009860B347
:1020A0002CE02068416821F0E00141606068B0F5F3
:1020B000827F0BD1A068B0F5004F02D0B0F5806FE1
:1020C00004D12068016821F040010160A06AB0F5E8
:1020D000005F09D12068016821F400510160206887
:1020E000016841F400510160012084F85100002092
:1020F00084F850000320BDE8F8830025401E0090BE
:102100002068816838EA010004D000214945BDD12A
:102110000020F0E70121F9E70C0000207047FEF7EE
:10212000BBBD000030B593B030216846FEF780F8A3
:1021300014210CA8FEF77CF81D480025016841F029
:1021400080510160006800F08050119019480168CA
:1021500041F4804101600068022400F48040119045
:1021600001200090000401908001CDE9064008AAFA
:102170000420A82182E813000B906846FEF710FFA8
:1021800008B172B6FEE70CA90F2081E831004FF4C8
:10219000A0500F904FF48050109005210CA8FEF72E
:1021A00015FE002801D072B6FEE713B030BD000066
:1021B00040380240007000400248016841F470015C
:1021C0000160704788ED00E010B5806B0021C1858B
:1021D000C184FFF72BFC10BD70B5846B206840698B
:1021E00094F84110C0F3C0100025212904D118B182
:1021F000E584204600F08EF82068406994F842108B
:10220000C0F38010222904D118B1E585204600F0E2
:102210005AF8606C40F0100060642046FFF706FC3E
:1022200070BD10B50146806B096809684FF0000267
:10223000C9052ED4C28501680C3151E8003F23F452
:10224000807341E80034002CF5D10168143151E865
:10225000003F23F0010341E80034002CF5D1016870
:10226000143151E8003F23F0400341E80034002CD2
:10227000F5D1202180F84210016B012909D10168B4
:102280000C3151E8003F23F0100341E80034002CEA
:10229000F5D14263016B012902D0FFF78DFD10BD1E
:1022A000818DFFF755FB10BD10B5806B0121416397
:1022B000016B012902D0FFF780FD10BD818D490817
:1022C000FFF746FB10BD01680C3151E8002F22F4E6
:1022D000907241E80023002BF5D10168143151E8D8
:1022E000002F22F0010241E80023002BF5D1016B01
:1022F000012909D101680C3151E8002F22F01002A8
:1023000041E80023002BF5D1202180F84210002164
:102310000163704701680C3151E8002F22F0C002C0
:1023200041E80023002BF5D1202180F841107047AF
:1023300008B590F84210222901D0022008BD826819
:102340004FF480539A4201D1016921B1816A9A42C6
:102350001BD04AB10AE00268816A5268C2F30802DF
:102360000A80816A891C08E0026972B102685268B9
:1023700002F07F020A70816A491C8162C18D491E88
:102380000904090CC18503D01BE002685268F1E71B
:102390000168CA6822F02002CA600168CA6822F493
:1023A0008072CA6001684A6922F001024A612021F4
:1023B00080F8421000214163026B012A03D0FFF72D
:1023C000FBFC002008BD016301680C3151E8002FBF
:1023D00022F0100241E80023002BF5D101680A68C1
:1023E000D20602D50A6849680091818DFFF7B0FADC
:1023F000E7E7000070B5044600680169E26821F46F
:102400004051114301612169A068E2690843616993
:10241000114308432168CA6849F20C639A43024396
:10242000CA6020684169A26921F440711143416189
:1024300031492068884202D03049884202D1FEF7F3
:102440006FFD01E0FEF75CFDE269002319216425C0
:102450003226B2F5004F626828D0A0FB0101930F2D
:102460009200FDF7ADFE0146B0FBF5F06FF01802EB
:10247000504301EB800006EB0010B0FBF5F000F0DC
:10248000F002B1FBF5F002EB0012B1FBF5F06FF0DA
:102490001803584301EB800006EB0010B0FBF5F089
:1024A00000F00F0021681044886070BDA0FB01019E
:1024B00092185B41FDF784FE0146B0FBF5F0020186
:1024C000B1FBF5F06FF01803584301EB800006EB09
:1024D000C000B0FBF5F000F0F80002EB4002B1FBE9
:1024E000F5F0584301EB800006EBC000B0FBF5F0BF
:1024F00000F00700D6E70000001001400014014082
:1025000038B5816204468285002013466064222229
:1025100084F84220E56B1B4AEA63E56B1A4A2A6499
:10252000E56B1A4AEA64E26B10650A462168E06BC3
:10253000091DFEF7B9F9206801684068009020691C
:1025400048B120680C3050E8001F41F4807140E829
:102550000012002AF5D12068143050E8001F41F025
:10256000010140E80012002AF5D12068143050E83B
:10257000001F41F0400140E80012002AF5D1002080
:1025800038BD000023220008A9220008D921000834
:102590002DE9F843984617460D460446089E24E068
:1025A000701C22D0FEF772FBA0EB0800B0421AD8D4
:1025B000CEB12068C168490717D5802D15D0402DB0
:1025C00013D00168C94309070FD40168002540688A
:1025D00000902046FFF777FE0820606484F84050A2
:1025E0000120BDE8F8830320FBE72068006835EA96
:1025F000000004D00020B842D2D00020F1E7012032
:10260000F9E700000148FFF713BA0000CC080020EA
:10261000FEE700007FB5000320218DF80010010CBB
:102620008DF80410010A8DF808108DF80C0000F0E8
:1026300043F900F0C5F8144C002210212046FEF7A3
:102640001FFB4FF47A752B46012269460F48FEF7AF
:1026500099FF2B46012201A90C48FEF793FF2B4658
:10266000012202A90948FEF78DFF2B46012203A98A
:102670000648FEF787FF012210212046FEF700FBE7
:1026800000F09EF87FBD00000000024074080020AA
:102690002DE9F04188B00646FF208DF808000320A0
:1026A0008DF80C00080C8DF81000080ADFF8748013
:1026B00015468DF814008DF81810002210214046A0
:1026C000FEF7DEFA4FF47A773B46012203A916485B
:1026D000FEF758FF3B46012204A91348FEF752FFBC
:1026E0003B46012205A91048FEF74CFF3B4601225C
:1026F00006A90D48FEF746FF002408E03219012321
:1027000002A909480097FEF7F0FF641CA4B2AC428E
:10271000F4D3012210214046FEF7B2FA08B0BDE81A
:10272000F081000000000240740800207FB5902076
:102730008DF80C000020204C8DF808000246102176
:102740002046FEF79DFA4FF47A752B46012203A925
:102750001A48FEF717FF2B46012202A91748FEF779
:1027600011FF2B46012202A91448FEF70BFF2B464E
:10277000012202A91148FEF705FFFF218DF8001084
:102780008DF804102B46012269460C48FEF750FED6
:102790002B46012201A90948FEF74AFE0122102119
:1027A0002046FEF76DFA9DF804009DF8001004B075
:1027B00040EA012070BD00000000024074080020C3
:1027C0007CB5FF208DF800000520104D8DF8040029
:1027D0004FF47A74002210212846FEF751FA23465E
:1027E000012201A90A48FEF7CDFE234601226946CF
:1027F0000748FEF71DFE012210212846FEF740FA89
:102800009DF80000C007E5D17CBD0000000002403B
:10281000740800202DE9F04186B0064602208DF8AC
:102820000400080C8DF80800080A8DF80C00154605
:1028300000248DF81010080BFFF7ECFE00F03CF8B8
:10284000FFF7BEFFDFF86880002210214046FEF748
:1028500017FA4FF47A773B46012201A91548FEF793
:1028600091FE3B46012202A91248FEF78BFE3B4631
:10287000012203A90F48FEF785FE3B46012204A969
:102880000C48FEF77FFE06E031193B46012209485D
:10289000FEF778FE641CAC42F6D3012210214046BC
:1028A000FEF7EEF9FFF78CFF06B0BDE8F0810000FF
:1028B000000002407408002038B506200A4C8DF84C
:1028C0000000002210212046FEF7DAF94FF47A7357
:1028D000012269460548FEF755FE012210212046D7
:1028E000FEF7CEF938BD0000000002407408002059
:1028F0000FB4054B10B503A9044A029800F028F85C
:1029000010BC5DF814FB0000112C00081000002022
:102910000907090E002804DB00F1E02080F800140C
:10292000704700F00F0000F1E02080F8141D7047A0
:1029300002E008C8121F08C1002AFAD17047704788
:10294000002001E001C1121F002AFBD170470000E6
:102950002DE9FF4F8DB09B460F460446002606E04A
:1029600025280BD05A460F999047641C761C207876
:102970000028F5D111B03046BDE8F08F0025A846FB
:102980000122984900E0054314F8013F203B02FA78
:1029900003F00842F7D120782E2817D114F8010F40
:1029A00045F004052A280ED06FF02F022078A0F100
:1029B000300109290AD808EB880102EB410100EB3C
:1029C0000108641CF2E757F8048B641C20786C281B
:1029D0000DD004DC4C2812D06A2811D104E07428F0
:1029E0000DD07A280CD10AE045F4001507E0617893
:1029F00045F48015814202D1641C05F58015641CE4
:102A00002278692A45D008DC002AB3D0582A69D038
:102A1000632A10D0642A08D13BE0702A67D0732A59
:102A200013D0752A5CD0782A5CD010465A460F998C
:102A30009047761CD3E017F8040B8DF800000020B7
:102A40008DF80100E946012003E057F8049B4FF0A0
:102A5000FF3069074FF0000501D40AE06D1C4545C1
:102A60000DDA8542FADB19F805100029F6D106E0E7
:102A70006D1C8542FCDB19F805100029F8D12E44A5
:102A800004E019F8010B5A460F9990476D1EF8D2D1
:102A9000A5E00A200021CDE90801C5F30250022873
:102AA0000DD001CFC117031E71F100030DDA4FF0F5
:102AB000000CD0EB0C006CEB01012D2308E0FF1D96
:102AC00027F00707F7E80201EDE72B0504D52B23D4
:102AD0008DF8283001233BE0EB0739D02023F7E7BE
:102AE0000A2000E010200021CDE9080107E01020B5
:102AF000002145F00405CDE908014FF00808C5F3B1
:102B0000025002280FD001CF00214FF0000A2B07FE
:102B10001FD5702A0DD0DDE908C38CF0100C5CEADB
:102B2000030C0CD015E0FF1D27F00707F7E80201A2
:102B3000EBE740228DF828204FF0010A0BE050EA25
:102B4000010306D030238DF828308DF82920022388
:102B50009A46582A04D024A20DF120090B9209E0CC
:102B600026A2F9E7DDE90823FDF72AFB0B9B9B5C16
:102B700009F8013D50EA0102F4D1ADEB0900203023
:102B80000890680701D44FF001080899884502DDD4
:102B9000A8EB010000E000208046002506E00AA81E
:102BA0005A46405D0F9990476D1C761C5545F6DBE3
:102BB00004E030205A460F999047761CB8F1000186
:102BC000A8F10108F5DC05E019F8010B5A460F9948
:102BD0009047761C0899481E08900029F4DC641C74
:102BE000C5E600000928010030313233343536376C
:102BF0003839616263646566000000003031323349
:102C000034353637383941424344454600000000E8
:102C100013B54FF47A73012269460248FFF7CEF8E4
:102C200000981CBDCC080020F8B500260C460546CF
:102C30000096FDF717FF084A022069461660956066
:102C4000C2E903401046FDF779FE08B1701EF8BDD9
:102C5000FDF7C0FE0020F8BDA80900202DE9F041D5
:102C600017460D460646FDF7FDFE002408E000234A
:102C7000314602202A68FDF7B7FE241D1035361DA7
:102C8000BC42F4D3BDE8F041FDF7A4BE86B0FEF728
:102C90000BF8FFF747FAFFF7F9F8FFF7E1F8FFF74E
:102CA0004DF9FFF729F9FFF769F900F0F3F814215E
:102CB0006846FDF7BDFA0020FFF7ACFCC820FDF721
:102CC0002BFE0A2200216846FFF7E2FC694634A089
:102CD000FFF70EFEC820FDF71FFE36A0FFF708FE27
:102CE000FFF724FD01463AA0FFF702FEC820FDF7DA
:102CF00013FE052200213AA0FFF78CFDC820FDF746
:102D00000BFE052200216846FFF7C2FC694636A08B
:102D1000FFF7EEFDC820FDF7FFFD38A0FFF7E8FD47
:102D200040A0FFF7E5FD4948059001210720FFF786
:102D30007BFF474C042205A92046FFF78FFF45A0E3
:102D40002168FFF7D5FDE21447494848FEF7D9FD51
:102D5000474C00BFD4E915108842FBD08188008819
:102D6000081A401C86B2314642A0FFF7C1FD00257B
:102D700007E0A06D0068415D45A0FFF7B9FD6D1C3F
:102D8000ADB2B542F5D315A0FFF7B2FDA06D083086
:102D9000A065E16D8842DDD13548001DA065D9E709
:102DA000B6C1C8A1B5BDB5C4CAFDBEDD3D20257301
:102DB0000D0A00000D0AA1BE32A1BFB6C1C8A1C94B
:102DC000E8B1B8B5C469642E2E2E2E2E2E0D0A0041
:102DD000C9E8B1B84944203D2025580D0A0000003B
:102DE000717765720000000072656164206461742F
:102DF00061203D2025730D0A000000003D3D3D3D52
:102E00003D3D3D3D3D3D3D3D3D3D3D3D3D3D3D3DF2
:102E10003D3D3D3D3D3D3D3D3D3D3D3D3D3D0D0A45
:102E200000000000D5FDD4DABDF8D0D0B6C1D0B4D2
:102E3000C4DAB2BF464C415348CAB5D1E9A3ACC7C6
:102E4000EBC4CDD0C4B5C8B4FD0D0A007856341219
:102E500000000608726561642064617461203D2091
:102E60002523780A0000000014000020CC08002070
:102E700014080020746865207061727420686173A2
:102E800020256420656C656D656E740A0000000085
:102E9000256300007047000610160006101600009B
:102EA00000000000000001020304060708090000FA
:102EB0000000010203040000D82E000800000020DA
:102EC0001400000030290008EC2E00081400002037
:102ED000AC0D0000402900080100000010000000B7
:0C2EE000000000000024F40000000000CE
:040000050800018965
:00000001FF
